:020000040800F2
:10000000784C002009030008552E0008EF2D000849
:10001000532E00086905000893380008000000000E
:10002000000000000000000000000000290200089D
:100030007905000800000000850200080D31000865
:1000400023030008230300082303000823030008F8
:1000500023030008230300082303000823030008E8
:100060002303000823030008230300086B0500088E
:1000700023030008230300082303000823030008C8
:100080002303000823030008530500082303000886
:1000900023030008230300082303000823030008A8
:1000A0002303000823030008230300084931000844
:1000B0005731000823030008230300082303000826
:1000C0002303000823030008230300082303000878
:1000D00023030008853800082303000823030008D1
:1000E0002303000823030008230300082303000858
:1000F0002303000823030008230300082303000848
:100100002303000823030008230300082303000837
:100110002303000823030008230300082303000827
:100120002303000823030008230300082303000817
:100130002303000823030008230300082303000807
:1001400023030008230300082303000823030008F7
:1001500023030008230300082303000823030008E7
:1001600023030008230300082303000823030008D7
:1001700023030008230300082303000800000000F5
:10018000230300082303000800F002F800F03CF805
:100190000AA090E8000C82448344AAF10107DA45E2
:1001A00001D100F031F8AFF2090EBAE80F0013F0F8
:1001B000010F18BFFB1A43F00103184790500000CD
:1001C000B0500000103A24BF78C878C1FAD852075E
:1001D00024BF30C830C144BF04680C6070470000C1
:1001E0000023002400250026103A28BF78C1FBD840
:1001F000520728BF30C148BF0B6070471FB504F0DD
:10020000E3FF1FBD10B510BD00F069F91146FFF7FF
:10021000F5FF03F0A7FE00F087F903B4FFF7F2FF44
:1002200003BC00F08FF900002C4B1968086800F03F
:100230005AB880F30988BFF36F8F4FF0000080F346
:10024000118870470000000008480068006880F3CB
:1002500008884FF0000080F3148862B661B6BFF3DF
:100260004F8FBFF36F8F00DF00BF00BF08ED00E0CE
:10027000DFF80C00016841F470010160704700BFB5
:1002800088ED00E0EFF30980BFF36F8F134B1A681E
:100290001EF0100F08BF20ED108A20E9F04F10600B
:1002A00009B44FF0500080F31188BFF34F8FBFF3B4
:1002B0006F8F04F003FD4FF0000080F3118809BC3C
:1002C0001968086800F014B81EF0100F08BF00F09D
:1002D00014B880F30988BFF36F8F704710000020B7
:1002E000EFF30580704730C8B0E8C04FFFF7A1BFFB
:1002F00030C8B0E8C04FFFF7E7BFB0EC088AB0ECF9
:1003000008CAFFF7E6BF00000948804709480047D0
:10031000FEE7FEE7FEE7FEE7FEE7FEE7FEE7FEE7B5
:10032000FEE7FEE704480549054A064B7047000012
:10033000393100088901000878460020784C0020F7
:10034000784800207848002053EA020C00F06980C9
:100350002DE9F04B4FF00006002B1FBFB3FA83F5D9
:1003600003FA05F424FA05F65E4012BF1643B2FA0A
:1003700082F502FA05F4C5F120051EBF22FA05FC3C
:1003800044EA0C04203556EA044C4FEA144418BFE2
:10039000641C4FF000084FF00009904271EB030C11
:1003A00039D3002919BFB1FA81F701FA07F6B0FA7B
:1003B00080F700FA07F6C7F120071EBF20FA07FCF6
:1003C00046EA0C062037B6FBF4FCA7EB0507103F06
:1003D00007F01F0BCBF120060CFA0BFB2CFA06F6EC
:1003E00044BFB3460026202FA4BF5E464FF0000B4B
:1003F0005BEA060C08BF4FF0010B19EB0B09ABFBD6
:10040000027C48EB0608C01B06FB02CC0BFB03CCAE
:1004100071EB0C01C1E70B46024641464846BDE878
:10042000F08B13B54FF000004FF00001AFF30080E8
:10043000BDE81C40704702F0FF0343EA032242EA92
:10044000024200F02CB84FF0000200B5134694466B
:100450009646203922BFA0E80C50A0E80C50B1F11C
:100460002001BFF4F7AF090728BFA0E80C5048BF30
:100470000CC05DF804EB890028BF40F8042B08BFCE
:10048000704748BF20F8022B11F0804F18BF00F8CA
:10049000012B70477047704770474FF000020429E6
:1004A000C0F0128010F0030C3FF4CFAFCCF1040C7D
:1004B000BCF1020F18BF00F8012BA8BF20F8022BD7
:1004C000A1EB0C01FFF7C1BF5FEAC17C24BF00F8BC
:1004D000012B00F8012B48BF00F8012B704775462F
:1004E00000F02CF8AE4605006946534620F00700A0
:1004F000854618B020B5FFF715FFBDE820404FF046
:1005000000064FF000074FF000084FF0000B21F0FD
:100510000701AC46ACE8C009ACE8C009ACE8C009CA
:10052000ACE8C0098D46704710B50446AFF30080B3
:100530002046BDE81040FFF770BE0000004870473D
:100540001846002001491820ABBEFEE72600020035
:10055000704710B503F00EFD00F0ACFA03F00EFD8D
:10056000BDE8104000F0A6BAFEE710B503F046FD66
:10057000BDE8104000F050BD704772B6FEE770470E
:1005800070477047704770472DE9F047044690F870
:1005900050009AB00E464FF00009012816D00120F5
:1005A00084F85000002515951695324F2068B84202
:1005B00010D1DFF8C480CDF80080404602F026FC60
:1005C0008246206802F022FC60B10EE002201AB0E0
:1005D000BDE8F087606D40F02000606584F8505001
:1005E0000120F4E7BAF1000F0AD0606D40F020005E
:1005F00060654FF0010900BF84F850504846E6E7B7
:100600001E4831681E4A0029816840F61F7321F494
:1006100060411CD094F830C041EA4C31D6F804C097
:1006200041EA0C018160B968D8F8087001F0010155
:1006300007F001079268394302F001021143DBD150
:10064000B2683168114382689A4311430FE08160B8
:10065000B968D8F8086001F0010106F00106926857
:10066000314302F001021143C6D181689943816090
:10067000C2E70000000004500001045000030450D1
:10068000000204502DE9F84F00270446009790F827
:100690005000DFF8B8930D46B846012811D0012666
:1006A00084F85060206802F0ADFB60B1606D40F0EE
:1006B000200060655FF0010784F85080384600F044
:1006C000DDB90220FBE76868052808D8022825D094
:1006D000032825D0042825D0052825D00620216808
:1006E0000C2303EA901319442A680B6B00F01F00D7
:1006F0004FF01F0C0CFA00FCC2F3846223EA0C03D7
:10070000824013430B63206802F07CFB8246206822
:1007100002F074FB5AEA000009D09AE00C20DEE7F0
:100720001220DCE71820DAE74FF48070D7E7AA68D8
:100730002968206802F076FB20686969C268C2F304
:10074000C102520091402A69042A0FD000EB8200B6
:100750002B68026EDFF8F8C203F0F84302EA0C02DD
:100760000B431A4342F00041016672E0002102F09F
:100770003FFB400320684FF0000172D002F038FBCD
:1007800090FAA0F0B0FA80F1286842036ED090FA97
:10079000A0F0B0FA80F0814204D100221146206816
:1007A00002F04FFB0121206802F022FB4003206889
:1007B0004FF001015DD002F01BFB90FAA0F0B0FAFF
:1007C00080F12868420359D090FAA0F0B0FA80F086
:1007D000814204D100220121206802F032FB022173
:1007E000206802F005FB400320684FF0020148D06A
:1007F00002F0FEFA90FAA0F0B0FA80F12868420305
:1008000044D090FAA0F0B0FA80F0814204D10022E6
:100810000221206802F015FB0321206802F0E8FAAB
:10082000400320684FF0030133D002F0E1FA90FA60
:10083000A0F0B0FA80F1286842032FD090FAA0F01F
:10084000B0FA80F0814204D100220321206802F036
:10085000F8FA2068816811F0010F22D0ABE000E0C7
:1008600004E002F0C5FAC0F384618DE7C0F3846050
:1008700091E702F0BDFAC0F38461A2E7C0F384609F
:10088000A6E702F0B5FAC0F38461B7E7C0F384606D
:10089000BBE702F0ADFAC0F38461CCE7C0F384603B
:1008A000D0E72A7B296850F8B03FC1F3120C23EA45
:1008B0000C0302F0180C674A22FA0CF20A401343A8
:1008C0000360E968494576D1286841031BD090FA56
:1008D000A0F1B1FA81F1491C01F01F0109294FEA89
:1008E000403131D8002911D090FAA0F1B1FA81F14C
:1008F00001F1010101F01F0106FA01F609D100BF63
:10090000C0F3846109E0C0F38461E4E7C0F384616B
:10091000EEE790FAA0F1B1FA81F101F1010101F0E5
:100920001F0146EA816102D1C0F3846003E090FABE
:10093000A0F0B0FA80F000F1010000F01F0000EB21
:10094000400041EA005132E000290ED090FAA0F1B7
:10095000B1FA81F101F1010101F01F0106FA01F67E
:1009600006D100BFC0F3846106E0C0F38461F1E703
:1009700090FAA0F1B1FA81F101F1010101F01F013A
:1009800046EA816102D1C0F3846003E090FAA0F0EE
:10099000B0FA80F000F1010000F01F002E4A00EBD9
:1009A000400002EB005041EA000141F00071AA68EA
:1009B000206802F037FA29482A6802423FF47CAEE8
:1009C00027488168274E284B284D01F0E071B2423C
:1009D0001DD10E021BD422689A4202D0AA427FF493
:1009E0006BAE826841F4000122F0E0720A4382603B
:1009F0001F4820490068B0FBF1F0401C00EB4000AC
:100A0000800000E0401E00900028FBD154E61A4E02
:100A1000B24209D1CE0107D422689A4201D0AA423B
:100A2000F4D141F080710AE06FF00045EA42EDD167
:100A30004A02EBD422689A42E8D141F480018268EC
:100A400022F0E0720A43826036E6000000007F4038
:100A500000F0FF03FFFF0700000020FE00000880F9
:100A600000030450000052C700000450000204506C
:100A70000C000020400D0300000084CB18BCBDE832
:100A8000E08F000010B502F09FFF02280CD200EBAF
:100A90004001064800EBC1000269002A04D0C16889
:100AA0008068BDE81040104710BD0000E8430020FA
:100AB000704700002DE9F05F04460068066845684D
:100AC000DFF854B2DBF8080000F01F07B0070ED5BE
:100AD000A8070CD5606DC00603D4606D40F40060BB
:100AE00060652046FFF74BFD216802200860DFF8B3
:100AF0002CA2DFF82C82700701D5680703D43007D9
:100B000037D5280735D5606DC00603D4606D40F435
:100B100000706065206802F07DF920B320685045C0
:100B200001D1424600E00246824208D03FB1052F83
:100B300005D0092F03D0504503D1414602E0C168DA
:100B400001E00146C96889040DD4016809070AD586
:100B500002F058F958B3606D40F010006065A06D68
:100B600040F00100A0652046FFF78CFF21680C20B3
:100B70000860B00601D5A80603D4700658D56806EB
:100B800056D5606DC00603D4606D40F400506065BA
:100B90002068C16C11F0C00F1AD00021894602F004
:100BA00039F902462068504514D1434613E02068C5
:100BB000416821F00C014160606D20F48070606537
:100BC000606DC004CFD4606D40F001006065CAE77D
:100BD0000121E3E70346834208D03FB1062F05D049
:100BE000072F03D0504503D1414602E0C16801E020
:100BF0000146C968B9F1000F14D08B0102D58AB142
:100C00008A040FD4026852060CD589020AD402F075
:100C1000F5F8E8B3606D40F010006065A06D40F03D
:100C20000100A0652046FFF7ABFC2168602008604A
:100C300030060BD5280609D5606D40F4803060651C
:100C4000204600F059F9216880200860F0050CD595
:100C5000E8050AD5606D40F4003060652046FFF776
:100C600091FC21684FF480700860B0050CD5A80590
:100C70000AD5606D40F4802060652046FFF783FC54
:100C800021684FF400700860F0062ED5E80600E0F9
:100C900008E02AD5606BD0B1AFB1DBF8080000F4F2
:100CA000604013E02068416821F060014160606DA0
:100CB00020F480506065606DC005B3D4606D40F075
:100CC00001006065AEE72068C068C00750B1606D84
:100CD00040F480606065A06D40F00200A065204691
:100CE000FFF7E6FE216810200860700512D5680540
:100CF00010D5606D40F480406065A06D40F0080044
:100D0000A06521684FF480600860204600F00AB8B2
:100D1000FFF737BC00F00BB800030450000104508B
:100D20000000045030BCBDE8C05FFFF7F1BF30BC2D
:100D3000BDE8C09FF8B54FF0000504002E460095B1
:100D400002D0606D10B107E00120F8BD204600F030
:100D5000D5F8A66584F8506020688168C1F34071B9
:100D600019B181685A4A1140816020688168C1F3D5
:100D7000007189B98168574A114041F08051816002
:100D8000554856490068B0FBF1F04000801C00E077
:100D9000401E00900028FBD120688168C1F30071DB
:100DA00041B9616D41F010016165A16D41F0010132
:100DB000A165012502F026F8616DC90600D430B1A5
:100DC000606D40F01000606501252846F8BD606D3B
:100DD00020F4807040F0020060652068806810F0A8
:100DE000010F15D13E4880683E4900F00100896836
:100DF00001F0010108433C49896801F00101084301
:100E000006D13A4960688A6822F47C1202438A60FB
:100E1000E168606B627E0843A16841EA42310843A1
:100E200094F8201040EA0140012904D1A18C304AF5
:100E300002EB41410843A16A29B101F47071E26AF1
:100E4000014342EA01002268D1682A4B194001435C
:100E5000D160206801F0D2FFA8B9207E94F830104C
:100E6000800340EA41012068C26844F202039A43C9
:100E70000A43C26094F8380001280CD02068016948
:100E800021F001010161206901282068016B21F036
:100E90000F0111D013E0D4E90F010843D4E9111276
:100EA0001143084321680A6940F2FC739A431043D6
:100EB00040F001000861E6E7E269521E1143016358
:100EC000606D20F0020040F0010060657DE70000E9
:100ED000C0FFFF5FC0FFFF7F0C000020400D03003C
:100EE00000000450000104500002045000030450AC
:100EF0000000FEFF07C0F0FF7047000010B586B08D
:100F0000044614216846FFF79EFA194B0021194840
:100F100003229C4216D1C36C43F00103C364C06C2E
:100F200000F00100059040200090CDE901216946C4
:100F30004FF0904000F04EF903F060F8E0648462F6
:100F400006B010BD0A4B64339C42F9D1C36C43F028
:100F50000203C364C06C00F0020005900220009000
:100F6000CDE901216946044800F034F9E8E70000C2
:100F700018440020001002400004004810B540B1A1
:100F800090F825100022022905D00421C16380F8C1
:100F90002420012010BD01680B6823F001030B60C1
:100FA00001680B6823F00E030B6090F84410046C8A
:100FB00001F01C03012101FA03F3636080F825109E
:100FC00080F82420002010BD10B590F825100024D2
:100FD000022903D00421C16301241AE001680A68D0
:100FE00022F001020A6001680A6822F00E020A601B
:100FF00090F84410036C01F01C02012101FA02F286
:101000005A6080F82510002180F82410816B01B10E
:101010008847204610BD0000F0B4016C0D680168DF
:101020000C6890F8442002F01C06042202FA06F331
:101030002B4211D063070FD50B689B0603D40B68B6
:1010400023F004030B6090F8441001F01C018A4067
:10105000016C4A60016B26E0022202FA06F72F4279
:101060004FF0000C4FF0010321D0A7071FD50C68EB
:10107000A40605D40C6824F00A040C6080F825301E
:10108000184B0168994290F8441001F01C0102FAD3
:1010900001F202D914490A6002E0124980394A601B
:1010A00080F824C0C16A00291AD0F0BC0847082281
:1010B000B2402A4214D0220712D50A6822F00E024A
:1010C0000A6090F84410026C01F01C0103FA01F16F
:1010D0005160C36380F8253080F824C0416BE2E79B
:1010E000F0BC7047800002400404024010B568B1B3
:1010F0002C4C026814232C49A24209D22B4C1444D4
:10110000B4FBF3F39B00C0E910130BE0012010BD0A
:10111000244C64421444B4FBF3F39B004364214B1E
:10112000083B0364022380F82530136847F6F07407
:10113000A3431360D0E902231A43D0E904342343C4
:101140001A4383691A43C3691A43036A1A4303683B
:101150001C6822431A608268B2F5804F19D0036C74
:101160000F228B4202D151F8A83F02E00D49A03175
:101170000B6890F8444004F01C04A24093430B60B9
:1011800090F84430426803F01C039A400B681A43FD
:101190000A600021C163012280F8252080F8241014
:1011A000084610BD0804024000000240F8FFFDBFE1
:1011B00070B5044600F028F90546601C02D00448CA
:1011C0000078044400F020F9401BA042FAD370BD1F
:1011D000000000202DE9F04FDFF8EC9100220127FC
:1011E000A9F1040B85B003254FF00F0C09F1040A97
:1011F000ABF1040EE0E000BF07FA02F416EA0403C4
:101200007ED00E7906F00306012E01D0022E1FD1EA
:1012100086680096560005FA06F80496009E26EAAF
:1012200008060096D1F80C80049E08FA06F8009E85
:1012300048EA0608C0F80880466891F80480A6438A
:10124000C8F3001808FA02F848EA0608C0F8048053
:10125000D1F804806FEA0806B6070AD1C66AA64329
:10126000C8F3C00494403443C4620C79E443A40737
:101270000AD0C4684FEA420805FA08F6B4438E68FB
:1012800006FA08F62643C6600C7904F00304022C23
:1012900011D1D40800EB84060296D6F820805407BA
:1012A000E60E0CFA06F428EA04080C69B440029E23
:1012B00044EA0804346204685600029605FA06F609
:1012C000B4430E7906F00308029E08FA06F848EACD
:1012D0000408C0F800804C6814F4403F6BD03B4CCD
:1012E000266E46F001062666246E22F0030604F000
:1012F00001040094364C34440294A468960700E03C
:1013000059E04FEA16780CFA08F6B443B0F1904F62
:1013100004D0304EB04203D101261BE0002619E074
:101320002D4EB04201D1022614E02C4EB04201D124
:1013300003260FE02A4EB04201D104260AE0294ECE
:10134000B04201D1052605E0274EB04201D1062664
:1013500000E0072606FA08F62643029CA660D9F8A4
:1013600000404E46D1F804809C435FEAC82800D56F
:101370001C433460DAF800405646D1F804809C43A0
:101380005FEA882800D51C433460DBF800405E46E5
:10139000D1F804809C435FEA883800D51C43346050
:1013A000DEF800407646D1F804809C435FEAC838F6
:1013B00000D51C433460521C0B681E46D3407FF49A
:1013C0001BAF05B000F012B8080401400010024045
:1013D000000001400004004800080048000C0048DC
:1013E00000100048001400480018004830BCBDE858
:1013F000C08F0069084000D0012070470AB18161A8
:1014000070478162704700000148806870470000A3
:101410000000002090F84120202A24D190F840209C
:10142000012A20D0012280F84020242280F8412087
:101430000268136823F0010313600268136823F441
:1014400080531360026813680B43136001680A68D5
:1014500042F001020A60202180F84110002180F84A
:101460004010084670470220704790F84120202A1B
:1014700022D190F84020012A1ED0012280F840207D
:10148000242280F841200268136823F001031360CE
:101490000268136823F4706343EA01211160016854
:1014A0000A6842F001020A60202180F84110002100
:1014B00080F84010084670470220704770B504005D
:1014C00004D094F84100002510B106E0012070BD61
:1014D00084F84050204600F04FF8242084F8410062
:1014E0002068016821F0010101606068216820F036
:1014F000706008612068816821F400418160E068C3
:101500000128A06830D040F4044021688860E06879
:101510000228206841682AD021F4006141602068D7
:101520004168144A114341602068C16821F40041B8
:10153000C160D4E904010843A16940EA012021689F
:10154000C860D4E907010843216808602068016881
:1015500041F0010101606564202084F841002563A9
:1015600084F84250002070BD40F40040CDE741F4C3
:101570000061D3E70080000210B586B00446142154
:101580006846FEF760FF0E48844217D10D48C16CD3
:1015900041F00201C164C06C694600F00200059090
:1015A0004FF4407000901220019000200290032020
:1015B0000390042004900448FFF70CFE06B010BD11
:1015C0008C45002000100240000400480248816859
:1015D00002781144816070470000002010B500249B
:1015E000032000F09FF80F2000F008F808B1012454
:1015F00001E000F04FF8204610BD000030B5054670
:101600001F4887B0816D41F020018165806D06A97A
:1016100000F02000009001A800F04CFB0498B0B14D
:1016200000F068FB40001749174AB0FBF1F117487A
:10163000491E0260416040F2E7320021C0E9032107
:101640008160816100F042FF040003D015E000F0EA
:1016500051FBE8E70D4800F093FF04000DD137205F
:1016600000F032F8102D07D200222946372000F072
:1016700039F80748056000E0012407B0204630BD76
:101680000010024040420F000014004014050020EA
:10169000040000200B4882B0016E41F00101016698
:1016A000016E01F001010091816D41F08051816571
:1016B000806D002200F0805000900F21901E02B03B
:1016C00000F010B800100240002809DB00F01F02F3
:1016D000012191404009800000F1E020C0F8001194
:1016E00070470000F0B40E4B1B680C46C3F3022396
:1016F000C3F10705042D00D90425191D072901D2BE
:10170000002300E0DB1E012606FA05F1491E2140F8
:1017100099409E40761E16403143F0BC02F0BAB8A4
:101720000CED00E0064900F0070208684FF6FF03E1
:10173000184040EA0220034A104308607047000046
:101740000CED00E00000FA051649B0F5007F0868CE
:10175000C0F3412009D0022805D0086820F4C060F9
:1017600040F480600860002070470128FBD00868C2
:1017700020F4C06040F4007008600B48322200681A
:1017800050430A4AB0FBF2F0401C00E0401E4A6998
:10179000520501D50028F9D148694005E3D5032059
:1017A00070470000007000400C00002040420F0015
:1017B0000248006800F4C0607047000000700040FC
:1017C0002DE9F84F044600270088E54D3E46010507
:1017D00004F1200B1DD5606E78B1B0F5800F11D0EB
:1017E000B0F5000F04D0B0F5400F22D001270FE074
:1017F000E86840F48030E8601BE00021201D01F023
:101800002DFB03E00021584601F0BEFB070010D07D
:101810003E462088C00426D5A06EC0B1B0F1807FBE
:101820001AD0B0F1007F0DD0B0F1407F19D0012760
:1018300018E0D5F88800616E20F440000843C5F830
:101840008800E6E7E86840F48030E86009E00021BD
:10185000201D01F003FB03E00021584601F094FB3A
:101860000746F7B13E46206880033AD5A86D4FF091
:101870000008C00009D4A86D40F08050A865A86D8C
:101880004FF0010800F080500090DFF8D8A2DAF89D
:10189000001041F48071CAF80010FFF7B5FD8146D1
:1018A00010E0D5F88800A16E20F040700843C5F81C
:1018B0008800D8E7FFF7A8FDA0EB0900022801D9AE
:1018C000032705E0DAF80000C005F3D5002F7CD02F
:1018D0004FEA0706B8F1000F03D0A86D20F0805042
:1018E000A8652078C00707D0D5F88800A16B20F044
:1018F00003000843C5F888002078800707D5D5F88D
:101900008800E16B20F00C000843C5F888002078BF
:10191000400707D5D5F88800216C20F03000084337
:10192000C5F888002078000707D5D5F88800616CD5
:1019300020F0C0000843C5F888002078C00607D50D
:10194000D5F88800A16C20F440700843C5F88800E1
:101950002078800607D5D5F88800E16C20F4406037
:101960000843C5F888002088800507D5D5F8880089
:10197000E16D20F440200843C5F888002088400528
:1019800007D5D5F88800216E20F440100843C5F82B
:1019900088002078400607D5D5F88800216D20F40E
:1019A00040500843C5F888002078000607D5D5F8D0
:1019B0008800616D20F440400843C5F88800208805
:1019C000C00509D5D5F8880000E01CE0A16D20F421
:1019D00040300843C5F8880020884FF00067800435
:1019E0004FF080684FD5D5F88800E16E20F0406058
:1019F0000843C5F88800E06EB8423CD1E86840F47E
:101A00008010E8603FE0D5F8900010F4407015D0E9
:101A1000D4F88410814211D0D5F89000D5F89010F8
:101A200020F4407041F48031C5F89010D5F8901042
:101A300021F48031C5F89010C5F89000C00710D08F
:101A4000FFF7E2FC074641F2883906E0FFF7DCFCCD
:101A5000C11B494501D903263CE7D5F89000800712
:101A6000F4D5D5F89000D4F8841020F440700843E1
:101A7000C5F890002EE7404505D10121201D01F059
:101A8000EDF900B106462068000317D5D5F88800A7
:101A9000216F20F040600843C5F88800206FB842ED
:101AA00004D1E86840F48010E86007E0404505D1C3
:101AB0000121201D01F0D2F900B106462068400343
:101AC00017D5D5F88800616F20F040600843C5F84D
:101AD0008800606FB84204D1E86840F48010E86084
:101AE00007E0404505D10121201D01F0B7F900B103
:101AF0000646208840041AD5D5F88800A16F20F04A
:101B000040500843C5F88800A06FB0F1805F03D053
:101B1000B0F1005F05D00AE00221201D01F09EF91E
:101B200003E00221584601F02FFA00B10646208852
:101B3000000407D5D5F88800E16F20F08040084305
:101B4000C5F888002068C00307D555F8880FD4F879
:101B5000801020F0004008432860304600F004B8B0
:101B6000001002400070004018BCBDE8E08F00008B
:101B70002DE9F0470F4605006BD0494E306800F064
:101B80000700B84209D2306820F0070038433060BF
:101B9000306800F00700B8425BD12878414C8007DC
:101BA0000AD5A868A16801F0F001884204D9A168AB
:101BB00021F0F0010143A1602878C0072CD06868AB
:101BC000032811D0022812D0216898B149050029B4
:101BD0003FDAA16821F003010143A160FFF714FC83
:101BE000804641F2883910E021688901EFE72168D9
:101BF0008903ECE78907EAE7FFF706FCA0EB080199
:101C0000494502D90320BDE8F087A068696800F063
:101C10000C00B0EB810FEFD1287880070AD5A868B7
:101C2000A16801F0F001884204D2A16821F0F0011E
:101C30000143A160306800F00700B8420BD930685A
:101C400020F0070038433060306800F00700B842E9
:101C500001D00120D7E72878400705D5A068E968BA
:101C600020F4E0600843A0602878000706D5A0684B
:101C7000296920F4605040EAC100A06000F05EF8DD
:101C8000A168094AC1F30311515C01F01F01C8406A
:101C90000649086006480068BDE8F047FFF7AEBC9B
:101CA0000020024000100240D45100080C00002027
:101CB000040000200F2202600C4A936803F0030323
:101CC0004360936803F0F0038360936803F4E06378
:101CD000C36092684FF4E06303EAD20202610448F1
:101CE000006800F007000860704700000010024024
:101CF000002002400548064900688968054AC1F38A
:101D00000221515C01F01F01C84070470C00002007
:101D1000001002401452000805480649006889680E
:101D2000054AC1F3C221515C01F01F01C840704750
:101D30000C000020001002401452000870B5254924
:101D4000002318468A68CC6812F00C0204F00306DF
:101D5000214C4FEA640509D00C2A05D0042A32D060
:101D6000082A00D1284670BD012E10D10B681B0730
:101D700004D4D1F89430C3F3032302E00B68C3F317
:101D80000313164E56F82330DAB10C2AEBD1C8688B
:101D900000F00300022818D0032818D01846CA689B
:101DA000CB68C2F30212C3F306234343521CB3FBB6
:101DB000F2F2C868C0F34160401C4000B2FBF0F092
:101DC00070BD184670BD204670BD2046E7E7284626
:101DD000E5E70000001002400024F400E451000890
:101DE0002DE9F84304006FD0FD4DA86800F00C0603
:101DF000E86800F003072078C00664D576B10C2EA1
:101E000001D1012F0AD0A069002828687AD040F0BB
:101E100001002860FFF7F8FA80465DE02868800737
:101E200002D5A0690028DED0216A2868000703D502
:101E3000286800F0F00004E0D5F89400F02202EAEF
:101E40001010814216D9084601F022F900283BD132
:101E5000286840F0080028602868216A20F0F00017
:101E6000084328606868E16920F47F4040EA012067
:101E7000686016E0286840F0080028602868216A39
:101E800020F0F000084328606868E16920F47F4092
:101E900040EA0120686026B9206A01F0F9F80028BC
:101EA000D5D1FFF74BFFA968CE4AC1F30311515CAE
:101EB00001F01F01C840CC490860CC480068FFF71A
:101EC0009DFB00287ED12EE0CAE000BFFFF79CFA00
:101ED000A0EB0800022876D828688007F6D5286885
:101EE00040F0080028602868216A20F0F0000843CC
:101EF00028606868E16920F47F4040EA012068605A
:101F000011E0FFE720F001002860FFF77DFA80462E
:101F100006E000BFFFF778FAA0EB08000228DAD845
:101F200028688007F6D42078C00740D0082E18D043
:101F30000C2E01D1032F14D06068B0F5803F17D06C
:101F4000B0F5A02F286817D020F4803028602868CA
:101F500020F4802028606068E0B1FFF755FA8046E1
:101F600014E02868800322D56068002878D01EE03D
:101F7000286840F48030EDE740F480202860F7E7DF
:101F8000FFF742FAA0EB08006428A4D82868800371
:101F9000F6D50CE0FFF738FA804605E0FFF734FA93
:101FA000A0EB0800642896D828688003F6D420782F
:101FB00080073BD5042E11D00C2E01D1022F0DD05D
:101FC000E06801E086E1D6E0002828681ED040F4F1
:101FD00080702860FFF718FA07460CE02868400573
:101FE0000CD5E0680028C1D008E000BFFFF70CFA6C
:101FF000C01B022893D828684005F7D56868217C63
:1020000020F0F85040EA016068600FE020F4807032
:102010002860FFF7F9F9074605E000BFFFF7F4F97C
:10202000C01B0228B1D828684005F7D420780007E3
:1020300029D560690028D5F8940012D040F001003D
:10204000C5F89400FFF7E0F9074604E0FFF7DCF974
:10205000C01B022899D8D5F894008007F6D512E065
:1020600000E120F00100C5F89400FFF7CDF9074624
:1020700005E000BFFFF7C8F9C01B02287BD8D5F8E0
:1020800094008007F6D42078400766D5A86D002715
:10209000C00008D4A86D40F08050A865A86D012745
:1020A00000F08050009052480168C90512D40168C0
:1020B000814641F480710160FFF7A6F9804605E092
:1020C000FFF7A2F9A0EB0800022854D8D9F80000C5
:1020D000C005F5D5A068012816D00528D5F89000D0
:1020E00017D020F00100C5F89000D5F8900020F03E
:1020F000040000BFC5F89000A06841F28839C0B163
:10210000FFF782F980460FE0D5F8900040F001001B
:10211000F0E740F00400C5F89000F5E7FFF774F928
:10212000A0EB0801494526D8D5F890008007F5D5E1
:102130000EE0FFF769F9804606E000BFFFF764F99B
:10214000A0EB0801494516D8D5F890008007F5D4D2
:102150001FB1A86D20F08050A865A06AF0B30228D6
:102160000AD00C2E7ED0286820F080702860FFF7FF
:102170004BF90446B0E0ACE0E868E26A00F0030125
:10218000914229D1216B00F070020901103991426E
:1021900022D1626B00F4FE41B1EB022F1CD1A26B85
:1021A00000F40031072A01D0012200E00022914210
:1021B00012D1A18F00F4C00249084905A1F5001110
:1021C000914209D194F8401000F0C06049084906D6
:1021D000A1F1007181425ED00C2E0BE072E0000094
:1021E00000100240D45100080C0000200400002020
:1021F0000070004079D02868400176D42868C0007B
:1022000073D4286820F080702860FFF7FDF8064638
:1022100005E000BFFFF7F8F8801B022859D82868AE
:102220008001F7D4D4E90B016FF00F0202EB01112A
:102230000843A18F5204490802EB4151626B41EA05
:102240000221084394F840104FF07E42490802EB07
:1022500041610843A16B090940EA4140E968244A09
:10226000114000E041E00843E860286840F08070D9
:102270002860E86840F08070E860FFF7C5F8044621
:1022800005E000BFFFF7C0F8001B022821D828682E
:102290008001F7D527E02868800124D4286840F021
:1022A00080702860E86840F08070E860FFF7ACF864
:1022B000044604E0FFF7A8F8001B022809D82868A4
:1022C0008001F7D50FE000BFFFF79EF8001B022842
:1022D00002D90320BDE8F88328688001F4D4E868B7
:1022E00004490840E8600020F4E70120F2E700001C
:1022F0008C809DF9FCFFEEFE70B5040009D0606A89
:10230000002540B125616561A56294F85D0040B18A
:102310000CE0012070BD6068B0F5827FF4D0E5610B
:10232000F2E784F85C50204600F056F8022084F86A
:102330005D002068016821F040010160E1684FF410
:10234000E062914201D9002001E04FF48050B1F5E4
:10235000706F02D0914200D0A562A188228901F459
:10236000827102F404421143227C02F00202114302
:10237000227D02F001021143228B02F4007211430C
:10238000227F02F03802114394F8202002F08002EC
:102390001143228D02F40052114322681160A16999
:1023A000042202EA114194F8242000F4805002F043
:1023B0001002114394F8342002F008021143A2895C
:1023C00002F47062114301432068416025660120D8
:1023D00084F85D00002070BD10B586B0044614215D
:1023E0006846FEF730F80E48844217D10D48C16C9C
:1023F00041F00101C164C06C694600F00100059024
:10240000E020009002200190002002900320039021
:10241000052004904FF09040FEF7DCFE06B010BDA2
:1024200028450020001002407047704770470000A8
:10243000F0B590F83C20012A39D0012480F83C40C6
:10244000022280F83D20026853689568194E1A4FA1
:10245000B24201D0BA4204D123F4700C4B6843EA73
:102460000C0323F0700C0B6843EA0C035360026802
:10247000B24210D0B2F1804F0DD0104B9A420AD028
:102480000F4B9A4207D00F4B9A4204D0BA4202D067
:102490000D4B9A4204D1896825F08003194391605D
:1024A00080F83D40002180F83C100846F0BD022035
:1024B000F0BD0000002C0140003401400004004049
:1024C00000080040000C00400040014010B504002E
:1024D00003D094F83D0010B107E0012010BD0020AA
:1024E00084F83C00204600F023F8022084F83D00E8
:1024F000211D206800F036FE012084F8480084F891
:102500003E0084F83F0084F8400084F8410084F8DD
:10251000420084F8430084F8440084F8450084F8BD
:10252000460084F8470084F83D00002010BD0000FC
:1025300008B501681048B1F1804F0BD00F4A9142A5
:1025400007D1816D41F010018165806D00F01000B0
:10255000009008BD816D41F001018165806D002210
:1025600000F00100009005211C20FFF7BBF8BDE83A
:1025700008401C20FFF7A8B80010024000100040DF
:1025800090F83D10012901D001207047022180F808
:102590003D100168CA6842F00102CA600068114932
:1025A000884211D0B0F1804F0ED00F4988420BD035
:1025B0000E49884208D00E49884205D00D4988420C
:1025C00002D00D49884207D181680C4A1140062982
:1025D00006D0B1F5803F03D0016841F001010160F0
:1025E00000207047002C014000040040000800401B
:1025F000000C004000340140004001400700010091
:1026000070B5044690F83C000025012817D001263B
:1026100084F83C60022084F83D00226890682F4BCB
:10262000184020F47F4090600868502838D00DDCB6
:1026300020284FD005DC90B3102811D14AE00220A9
:1026400070BD302846D040280AD13BE060282FD00A
:1026500070280DD0B0F5805F03D0B0F5005F12D0C8
:10266000012584F83D60002084F83C00284670BDB8
:10267000CB68D1E90121206800F0D8FD206881688D
:1026800041F0770109E0CB68D1E90121206800F031
:10269000CDFD2068816841F480418160E1E719E067
:1026A000CA684968206800F0D3FD5021206806E020
:1026B000CA684968206800F049FE6021206800F07F
:1026C000BFFDCEE7CA684968206800F0C1FD40211F
:1026D0002068F4E7226801461046F0E788FFFEFF15
:1026E000704700002DE9F041054690F83C000026B7
:1026F0000C46012810D0012085F83C0072B1042A54
:102700001CD0082A2CD00C2A5AD00126002085F88B
:102710003C003046BDE8F0810220FBE7D4E900121E
:10272000E368286800F0C2FD2868816921F00C0187
:10273000816128688169A26811430FE0D4E9001221
:10274000E368286800F022FE2868816921F440616E
:10275000816128688169A26841EA02218161D5E727
:102760002868D4E9002CE768036A016A21F48071C3
:1027700001622A49884202D02949884203D1016A6C
:1027800021F480610162C16923F4206321F0030117
:1027900041EA0C0121F0F00C39074FF420674CEAB4
:1027A000116107EA02221A43C16102622868C16905
:1027B00021F00C01C1612868C169A26811432AE0B7
:1027C0002868D4E90027E168036AD0F820C02CF417
:1027D000805CC0F820C0D0F81CC023F420432CF447
:1027E000407C4CEA07274FF6FF7C27F470470CEA41
:1027F000013139434FF4204707EA02321A43C161DD
:1028000002622868C16921F44061C1612868C16918
:10281000A26841EA0221C16178E70000002C014072
:102820000034014010B5040003D094F83D0010B10D
:1028300007E0012010BD002084F83C00204600F095
:1028400023F8022084F83D00211D206800F08AFC56
:10285000012084F8480084F83E0084F83F0084F8A2
:10286000400084F8410084F8420084F8430084F872
:10287000440084F8450084F8460084F8470084F852
:102880003D00002010BD000010B586B004461421A4
:102890006846FDF7D8FD17492068884227D11648B9
:1028A000016E41F400610166016E01F40061059161
:1028B000C16C41F00101C164C06C694600F00100C7
:1028C00005904FF44070009002200190002002908B
:1028D0000390012004904FF09040FEF77BFC002213
:1028E00005211B20FEF7FEFE1B20FEF7EDFE06B0C5
:1028F00010BD0000002C0140001002402DE9F04105
:1029000004460068C66805694FF00007A90713D59B
:10291000B10711D5F91E0161012020772068806977
:102920008007204602D0FFF7DBFE04E000F08BF8C2
:10293000204600F089F82777680716D5700714D568
:1029400021686FF004000861022020772068806908
:1029500010F4407F204602D0FFF7C2FE04E000F0F2
:1029600072F8204600F070F82777280715D5300751
:1029700013D521686FF008000861042020772068D3
:10298000C0698007204602D0FFF7AAFE04E000F0ED
:102990005AF8204600F058F82777E80616D5F006D2
:1029A00014D521686FF01000086108202077206896
:1029B000C06910F4407F204602D0FFF791FE04E08A
:1029C00000F041F8204600F03FF82777E80708D0EC
:1029D000F00706D021686FF001000861204600F082
:1029E00035F8280601D4A80408D5300606D5216894
:1029F0006FF4025008612046FFF717FDE80508D57F
:102A0000300606D521686FF4807008612046FFF714
:102A10000BFD680608D5700606D521686FF04000EA
:102A20000861204600F01CF8A8060AD5B00608D5B3
:102A300021686FF0200008612046BDE8F041FFF7F3
:102A4000F5BCBDE8F081704770470000006803499D
:102A5000884201D1FEF7BABD704700000014004063
:102A600070477047704770472DE9F041026804468F
:102A7000D0691168936840F60F0528424FF00005B1
:102A80004FF0020605D187067ED58F067CD5A16E54
:102A900033E1DFF894C203F0010701EA0C0C57EAB6
:102AA0000C0C71D05FEAC07C0CD05FEAC15C09D528
:102AB0004FF0010CC2F820C0D4F8842042F001028B
:102AC000C4F88420820709D5DA0707D02268166285
:102AD000D4F8842042F00402C4F8842042070AD5C6
:102AE000DA0708D0236804221A62D4F8842042F05E
:102AF0000202C4F8842002070CD501F020023A43F8
:102B000008D0236808221A62D4F8842042F0080210
:102B1000C4F8842002050BD54A0109D523684FF477
:102B200000621A62D4F8842042F02002C4F88420A3
:102B3000D4F88420002A36D0800605D5880603D52F
:102B4000A16E09B120468847D4F8840021688968BD
:102B5000490602D410F0280F27D0204600F0FDFCD3
:102B60002068806840061BD52068083050E8001FA8
:102B700021F0400140E80012002AF5D1606F78B1E1
:102B80006A498163606F00E015E0FEF71DFA0028D6
:102B900009D0606F816B00E02046BDE8F041084736
:102BA0002046FFF760FFBDE8F0812046FFF75BFF9E
:102BB000C4F88450F7E7D4F860C02027BCF1010FB7
:102BC0007ED15FEAC06C7BD55FEAC16C78D51020FE
:102BD00010622068806840064FD5616F0A685068AF
:102BE0000004000C3DD0B4F85830834239D9A4F821
:102BF0005A000868006880062BD4206850E8001F3F
:102C000021F4807140E80012002AF6D120680830D3
:102C100050E8001F21F0010140E80012002AF5D120
:102C20002068083050E8001F21F0400140E8001201
:102C3000002AF5D1C4F880702566206850E8001F8E
:102C400021F0100140E80012002AF6D1606FFEF773
:102C500095F96666B4F85800B4F85A10401A81B273
:102C600007E0B4F8581081429DD1106880069AD5CB
:102C700066662046FFF7F5FE95E7B4F85800B4F80D
:102C80005A10401A81B2B4F85A0000288BD000299B
:102C900089D0226852E8000F20F4907042E80003C7
:102CA000002BF6D12068083050E8002F22F00102F6
:102CB00040E80023002BF5D1C4F88070256600E0C1
:102CC0000AE0A566226852E8000F20F0100042E8F2
:102CD0000003002BF6D1CBE7C60209D55B0207D56E
:102CE0004FF4801010622046BDE8F041FFF7BABEF5
:102CF000020606D50A0604D5E16E00297FF44CAF22
:102D000051E74006B8D54806B6D52046026852E8D5
:102D1000001F21F0400142E80013002BF6D1C767E5
:102D2000C56600F063F83EE7200100045135000855
:102D300010B5040002D0E06F10B107E0012010BD13
:102D4000002084F87800204600F026F82420E06770
:102D50002068016821F001010160606A10B120461D
:102D600000F03EFB204600F01FFC0128E7D0206861
:102D7000416821F4904141602068816821F02A0176
:102D800081602068016841F0010101602046BDE8D2
:102D9000104000F089BB000010B586B00446142135
:102DA0006846FDF750FB0F48844218D10E48C16CAD
:102DB00041F00101C164C06C694600F0010005905A
:102DC0004FF4C06000900220019000200290032088
:102DD0000390072004904FF09040FEF7FBF906B0F7
:102DE00010BD000060430020001002407047FEE765
:102DF00000EB8100006E00F0F84070478068C0F37F
:102E0000C00070478068C0F3800070478068C0F3DE
:102E100080007047C06810F4406F01D000207047F8
:102E200001207047042303EAD15310B518444369C5
:102E3000C1F3045107248C40A3438A4013434361E8
:102E400010BD00EB8100016E21F0004111430166CD
:102E50007047FEE7FEE77047704700002DE9F0413C
:102E6000444C05468846E0680026810728680DD056
:102E7000E16801F00301814216D1A8B1E0686968F8
:102E8000C0F30210401C88420ED120E0012804D07B
:102E9000022805D0032807D108E02168890701E04E
:102EA00021684905002907DB01265FE021688903C5
:102EB00002D421684903F5E7E1686A686FF00F03FF
:102EC00021F0730103EB021211430143E16020681A
:102ED00020F080602060FEF797FA074605E000BF0B
:102EE000FEF792FAC01B022837D820680001F7D4F9
:102EF000B8F1000F18D0B8F1010F1ED0287D4FF0A7
:102F00007E41400801EB4060A96840EA0120216948
:102F1000194A114008432061206840F08060206019
:102F2000FEF772FA07461AE0A868E9680002090984
:102F300040EA41402169114AEBE7288A10494008DC
:102F400001EB4050A96840EA012021690D4AE0E701
:102F5000FEF75AFAC01B022801D9032606E02068B2
:102F60000001F5D52069A969084320613046BDE814
:102F7000F081000000100240FF80FFF9FF80FDFF9C
:102F80000000E0FFFF809FFF2DE9F0413D4C064629
:102F90008846E0680025810730680DD0E16801F0BF
:102FA0000301814216D1A8B1E0687168C0F3021034
:102FB000401C88420ED120E0012804D0022805D010
:102FC000032807D108E02168890701E02168490545
:102FD000002907DB012551E02168890302D421681B
:102FE0004903F5E7E16872686FF00F0321F07301A0
:102FF00003EB021211430143E160206820F080508E
:103000002060FEF701FA074605E000BFFEF7FCF975
:10301000C01B022829D820688000F7D4B8F1000F1F
:1030200015D0307C4FF07E41400801EB4060B16824
:1030300040EA01206169144A114008436061206838
:1030400040F080502060FEF7DFF907460FE0B068DF
:10305000F1680002090940EA414061690B4AEBE767
:10306000FEF7D2F9C01B022801D9032506E020682B
:103070008000F5D560697169084360612846BDE844
:10308000F081000000100240FF80FFF9FF80FDFF8B
:10309000F8B51C4D06460024A86DC00002D5FEF709
:1030A00087FB0DE0A86D40F08050A865A86D00F08A
:1030B00080500090FEF77CFBA96D21F08051A9653E
:1030C000B0F5007F04D0802E07D94FF003040AE04A
:1030D000802E08D9A02E01D804E001D1022402E0FC
:1030E000702E00D101240848016821F00701214316
:1030F0000160006800F00700A04201D00120F8BD87
:103100000020F8BD001002400020024010B5502001
:1031100080F31188BFF34F8FBFF36F8F01F04EFF25
:1031200018B104494FF080500860002080F31188E6
:1031300010BD000004ED00E00248016841F4700198
:103140000160704788ED00E010B501F033F9BDE88B
:103150001040FFF7D3BB10B501F030F9BDE81040C7
:10316000FFF7CCBB2DE9F0470268284B284D294ECC
:10317000294F2A4C4FF0804A984209D0504507D039
:10318000A84205D0B04203D0B84201D0A04204D139
:1031900022F0700C4A6842EA0C02DFF884C0DFF8C3
:1031A0008480DFF8849098420FD050450DD0A8421B
:1031B0000BD0B04209D0B84207D0A04205D060453C
:1031C00003D0404501D0484503D122F44075CA6878
:1031D0002A434D6922F080022A438D68C5620D683A
:1031E0008562984207D0A04205D0604503D0404593
:1031F00001D0484501D109690163016841F004012A
:103200000160012141610260BDE8F087002C0140AE
:103210000004004000080040000C00400034014061
:1032200000400140004401400048014010B584685E
:1032300042EA032224F47F440A432243826010BD01
:10324000826822F070020A4342F0070181607047F1
:1032500010B5036A046A24F0010404620E4CA04213
:103260000BD00E4CA04208D00D4CA04205D00D4C06
:10327000A04202D00C4CA04203D1046A24F0040402
:103280000462846924F0F00444EA021423F00A0280
:103290000A438461026210BD002C014000340140E9
:1032A000004001400044014000480140F0B5056A7B
:1032B000046A24F0010404621C4E1D4FDFF874C040
:1032C000B04209D0B84207D0604505D01A4CA042A0
:1032D00002D01A4CA04203D1046A24F00404046210
:1032E0008469B0420FD0B0F1804F0CD0144EB04280
:1032F00009D0144EB04206D0134EB04203D0B842AB
:1033000001D0604503D124F00304144301E044F0EC
:1033100001041A0724F0F00444EA126225F00A03BB
:1033200001F00A01194382610162F0BD002C0140E5
:103330000034014000400140004401400048014089
:103340000004004000080040000C004010B5036A73
:10335000046A24F0100404620A4CA04202D00A4C11
:10336000A04203D1046A24F040040462846923F07B
:10337000A00324F4704444EA023243EA011182615A
:10338000016210BD002C01400034014030B5046AD8
:10339000056A25F0100505620F4DA84202D00F4DB9
:1033A000A84203D1056A25F040050562856925F428
:1033B000407545EA022222F470454FF6FF7202EA98
:1033C000033224F0A0032A43A02404EA0111194384
:1033D0008261016230BD0000002C014000340140D8
:1033E00090F82410090706D501684A68436B22F457
:1033F00000421A434A6090F82410C90706D00168B9
:103400004A68836A22F400321A434A6090F8241012
:10341000890706D501684A68C36A22F480321A43D4
:103420004A6090F82410490706D501684A68036B82
:1034300022F480221A434A6090F82410C90606D567
:1034400001688A68836B22F480521A438A6090F87C
:103450002410890606D501688A68C36B22F40052DD
:103460001A438A6090F82410490611D501684A6809
:10347000036C22F480121A434A60016CB1F5801F7C
:1034800006D101684A68436C22F4C0021A434A60BC
:1034900090F82410090606D501684A68806C22F469
:1034A000002202434A6070472DE9F8430026044693
:1034B000C0F88460FDF7A8FF8046206800684FF0E0
:1034C000200500076FF07E4712D5434600222904ED
:1034D0002046009700F08CF950B1216851E8000FA8
:1034E00020F0800041E80002002AF6D1E56721E0E3
:1034F00020680068400722D5434600224FF480012F
:103500002046009700F074F9C8B1216851E8000F17
:1035100020F4907041E80002002AF6D120680830BB
:1035200050E8001F21F0010140E80012002AF5D107
:10353000C4F8805084F878600320BDE8F883E5671C
:10354000C4F8805044F8606F666026760020F4E787
:1035500010B5806AFFF787FA10BD016851E8002FA7
:1035600022F4907241E80023002BF6D10168083163
:1035700051E8002F22F0010241E80023002BF5D191
:10358000016E012908D1026852E8001F21F01001E4
:1035900042E80013002BF6D12021C0F88010002152
:1035A00001668166704700002DE9F041044601681C
:1035B00080682269E3691043626900251A43104359
:1035C000814F0A68814B1A4002430A6020684168B3
:1035D000E26821F44051114341602168A069B94279
:1035E00001D0226A10438A6822F4306202438A6062
:1035F0007749226877488A420DD1D0F8880010F0C8
:10360000030006D0012866D0022854D0032851D1E7
:1036100063E001204FE070498A420BD1D0F8880066
:1036200010F00C0047D0042845D0082851D00C28B1
:1036300040D152E069498A420BD1D0F8880010F09D
:10364000300038D0102846D0202842D0302831D140
:1036500043E063498A420BD1D0F8880010F0C000E3
:1036600029D0402837D0802833D0C02822D134E058
:103670005C498A420ED1D0F8880010F440701AD00C
:10368000B0F5807F27D0B0F5007F22D0B0F5407F25
:1036900010D122E0BA420DD1D0F8880010F4406079
:1036A00009D0B0F5806F16D0B0F5006F11D0B0F52D
:1036B000406F12D010204C4900264FF40043BA420C
:1036C0002ED160B102280DD004280DD008286FD16A
:1036D0000EE00220EFE70420EDE70820EBE7FEF71D
:1036E00009FB03E00B4603E0FEF728FB030060D074
:1036F000626802EB420098425AD8B3EB023F57D8B7
:10370000190E1B025008181871410023FCF71CFE0B
:10371000364AA0F5407191424AD82168C86048E015
:10372000E2694FF6EF779A4227D1092840D2DFE8C5
:1037300000F005080D3F213F3F3F0E00FEF7DAFA8B
:1037400001E0FEF7E9FA030001D132E00B466068C0
:10375000590001EB5001B1FBF0F0A0F11001B942AA
:1037600026D84FF6F0710140C0F3420001432068B3
:10377000C1601EE0FEF7E2FAE5E7092818D2DFE8AB
:1037800000F005080D171D1717170E00FEF7B2FA07
:1037900001E0FEF7C1FA030001D10AE00B466068C0
:1037A00003EB5001B1FBF0F0A0F11001B94208D9D0
:1037B0000125A6662846E666BDE8F081FEF7BEFA5A
:1037C000E9E780B2A9E7000000800040F369FFEF5D
:1037D0000038014000100240004400400048004012
:1037E000004C0040005000400024F400FFFC0F009B
:1037F0002DE9F047994617460D4604464FF000085C
:10380000089E33E0701C31D0FDF7FEFDA0EB0900EF
:10381000B04218D8BEB120680168490726D5802D6E
:1038200024D0402D22D0C169C94309070DD40825F1
:1038300005622046FFF791FEC4F8845084F8788032
:103840000120BDE8F0870320FBE7C069C043000505
:103850000CD421684FF4006008622046FFF77DFE1B
:103860002020C4F8840084F87880ECE72068C069E0
:1038700035EA000004D00020B842C3D00020E0E7C1
:103880000120F9E710B500F0A7FDBDE81040FFF7F3
:10389000EBB8FEE70907090E002804DB00F1E02081
:1038A00080F80014704700F00F0000F1E02080F86D
:1038B000141D704730B589B0002406940794182170
:1038C00068460894FCF7BFFD1E481D4904250160A9
:1038D0004FF48021C0E90114C460C0E904450476B6
:1038E00044760121C16180F820404FF4E862826291
:1038F0008A02C26280F83010446380F83840FDF7D5
:1039000019FA08B1FCF739FE06A90E480694FCF72F
:103910003BFE08B1FCF731FE0B4800900620CDE9D4
:1039200001047F200594CDE9030569460548FCF7AD
:10393000A9FE002801D0FCF720FE09B030BD000030
:1039400000000450184400204000201930B587B012
:1039500018216846FCF777FD1948184900240160D2
:103960004FF48021C0E901140425C460C0E9044576
:10397000047644760121C16180F820408462C462EB
:1039800080F83040446380F83840FDF7D3F908B13F
:10399000FCF7F3FD0B4800900620CDE901047F20E1
:1039A0000594CDE9030569460548FCF76BFE002840
:1039B00001D0FCF7E2FD07B030BD0000000104506B
:1039C0007C4400200002B02510B5034608490020C1
:1039D00000EB400201EBC20424791CB151F8322003
:1039E0009A4204D0401CC0B20228F1D3022010BD7C
:1039F000E8430020134810B51149016012494160A5
:103A000000210122C0E90212016141618161C161AD
:103A10000162FDF753FD08B1FCF7AFFD0021094835
:103A2000FDF7F8FC08B1FCF7A8FD00210548FDF7FB
:103A30001CFD002803D0BDE81040FCF79EBD10BD62
:103A4000005400408C450020E49CD110124810B571
:103A5000104901604FF48271416000214FF4E0622F
:103A6000C0E902124FF400720161C0E90512202280
:103A7000C0E9072107224162C0E90A120163082157
:103A80004163FEF739FC002803D0BDE81040FCF785
:103A900074BD10BD003001402845002000B597B02E
:103AA00044216846FCF7CFFC142111A8FCF7CBFC9D
:103AB0004FF40070FDF748FE08B1FCF75EFD0220F0
:103AC000C10103911021009004910A900121CDE9D8
:103AD0000B010A210D910721CDE90E1010906846C7
:103AE000FEF77EF908B1FCF748FD0F201190032086
:103AF00012900020139014901590042111A8FEF745
:103B000037F8002801D0FCF738FD17B000BD0000E1
:103B100010B588B000241E480594069404940094BF
:103B20000194029419490394C0E900144FF6FF71FF
:103B3000C0E90241046144618461FEF773FE08B18B
:103B4000FCF71BFD0494059404A911480694FEF7A4
:103B50006FFC08B1FCF711FD0120CDE90040029493
:103B6000002269460A480394FEF7BCFD08B1FCF741
:103B700004FD02200090042269460548FEF7B2FDCC
:103B8000002801D0FCF7F9FC08B010BD002C014062
:103B90006442002010B588B00024174800940194B6
:103BA00002940394049405944FF0804106940160BC
:103BB0004F21C0E9011440F2E731C0E9031480212C
:103BC0008161FEF783FC08B1FCF7D7FC4FF480500D
:103BD000009069460848FEF713FD08B1FCF7CDFCDC
:103BE000049404A904480694FEF722FC002801D09E
:103BF000FCF7C3FC08B010BDB04200203EB5002465
:103C00000F48009401940D49029401604F21C0E9CE
:103C100001146321C16080218161FEF757FC08B166
:103C2000FCF7ABFC20200090694602940448FEF7A4
:103C3000FFFB002801D0FCF7A0FC3EBD00100040B7
:103C4000FC4200200D4910B50B4AC1E900200020BC
:103C500088600C22C860C1E904028861C8610862FA
:103C600048620846FFF764F8002803D0BDE810401A
:103C7000FCF783BC10BD0000003801406043002009
:103C80001FB500F099F900F0EDFA4FF4E131012091
:103C900000F0A6FB00F0B6F900F094FB00F072F91A
:103CA000012000F052FB012000F04AFB00F03AF93D
:103CB000064B0FCB8DE80F00684600F0D1F800F0FE
:103CC00007F800F049F800F0C9F81FBD3C520008A1
:103CD00010B500F00FF9064A002128B151720548CD
:103CE00011720160416010BD01205072F7E70000C1
:103CF000FC450020B8000020FEB5154C0646012703
:103D0000607A60B1134D41F288312868301A8842D8
:103D10000AD368462E6000F0ABF830B115E000F031
:103D2000F9F8002800D06772FEBDBDF9000044F22A
:103D3000740200F57A61914207D82080666027728C
:103D400069680029F0D08847FEBD00202072FEBDC2
:103D5000FC450020B80000207CB500220121102085
:103D600001F06AF8294C002204212060082001F0AB
:103D700063F8606000220221082001F05DF8A06075
:103D800003220021012001F057F8E0600322002106
:103D9000012001F051F8206104F114000324CDE961
:103DA00000404FF4007500232A4619A11B4801F07A
:103DB000A9F8164800231830CDE900402A4618A17A
:103DC0001A4801F09FF8114902201C31C501CDE9C4
:103DD000000100232A4616A1184801F093F80B4869
:103DE00001242030CDE900400023A20214A116488E
:103DF00001F088F8054800232430CDE900402A4628
:103E000012A1154801F07EF87CBD00009000002052
:103E10005461736B44656D6F6400000011490008C4
:103E20005461736B436F6D6D000000000949000819
:103E30005461736B53656E736F72000025490008FF
:103E40005461736B41707000014900085461736BD9
:103E50005072696E740000001949000800F0DCBE61
:103E600010B51DC8014981E81D0010BDE0450020C6
:103E70002DE9F8434FF000070500ADF800704FF052
:103E8000FF380ED0194C207801280AD100F0C5F96E
:103E9000022648B16078401CC0B26070032800D38D
:103EA00026704046BDE8F8834FF4487000F0C4F92E
:103EB00018B9684600F058F938B16178491CC9B2A0
:103EC00061700329EED32670ECE76770084CBDF8EB
:103ED00000002080FDF798FA01216060217222889D
:103EE0002A80686029720020DCE700008C00002036
:103EF000F045002010B500F0B7F8054910B10222D6
:103F00000A7010BD012008700020487010BD00002C
:103F10008C00002002480078012800D00020704763
:103F20008C00002002480021017041807047000091
:103F30008800002009490120096809B10020704764
:103F40000749CA69002AF9D1044A283212688968E7
:103F5000491E8A42F3D10220704700002806002043
:103F600010000020FDF73AFBFFF78AFE00F04AFA46
:103F7000FEE70000004870471844002000487047E2
:103F80007C44002070B5FFF795FC0A480126A0F19B
:103F90003004002520602671657125616561FFF799
:103FA000D5FC04F19400A06126776577A562002016
:103FB000E56270BD1844002000B5A3B0FFF76EFDA8
:103FC00088216846FCF73FFA4FF480400090800358
:103FD0001E9002200121CDE901010A210391072150
:103FE000CDE904100690C00507906846FDF7E8FB90
:103FF000002801D0FCF7C1FA23B000BD004870478B
:10400000E0440020154808B5816C41F0010181644D
:10401000806C002200F00100009005210B20FDF7CC
:1040200061FB0B20FDF750FB0E480D49016000219C
:1040300041608160C1608021016149004161890066
:1040400081612021C16109020162FDF74FF800285A
:1040500003D0BDE80840FCF790BA08BD001002404C
:1040600008000240E044002010B500F02EF80028BF
:1040700001D04FF0FF3010BD10B5022000F026F93E
:104080000021022000F042F9062000F065F902202C
:1040900000F0FEF8092000F05FF9022000F0E4F8DB
:1040A0000446372000F058F9204610BD70B50024B2
:1040B00025466408FFF7E0FF08B144F080046D1C5A
:1040C000EDB2082DF5D3204670BD10B5022000F0EA
:1040D000FDF80021022000F019F94FF4F07000F013
:1040E0003BF9022000F0D4F8462000F035F9022018
:1040F00000F0BAF804464FF4CD7000F02DF92046D8
:1041000010BD10B500284FF002000DD000F0DEF811
:104110000021022000F0FAF8062000F01DF902202C
:1041200000F0B6F840200CE000F0D0F800210220AA
:1041300000F0ECF83C2000F00FF9022000F0A8F8A5
:104140000A20BDE8104000F007B9000070B5054630
:104150005FF0000405F00100FFF7D3FF641C6D0859
:10416000E4B2082CF6D370BDFEB505006FF003076E
:1041700022D0FFF7AAFF08B1B810FEBDCC20FFF790
:10418000E5FFBE20FFF7E2FF00246E46FFF78EFF3B
:104190003055641CE4B2092CF8D301210A460020F2
:1041A000335CFF2B01D0002103B10022401CC0B2C0
:1041B0000928F5D3114301D03846FEBD082400215B
:1041C0006E460A460020B35C81EA030717F0010F30
:1041D0004FEA510101D081F08C01401C5B08C0B254
:1041E0000828F1D3521CD2B2A242EBD39DF80800AA
:1041F000884202D06FF00100FEBD9DF801009DF8DD
:10420000001041EA0020642110FB01F0C11700EB0F
:104210001170001128800020FEBD10B5FFF755FF7A
:1042200010B14FF0FF3010BDCC20FFF78FFF4420BE
:10423000FFF78CFF002010BD70B5054600240A2052
:1042400000F08AF809E000BFFFF716FF08B1002070
:1042500070BD0A2000F07EF80A34AC42F4D36FF04F
:10426000020070BD7047000010B504280BD207494A
:1042700051F830203AB101EBC00081881046FDF7BB
:10428000B8F8012800D0002010BD00001C52000822
:1042900070B586B00446042814D20B4E56F834503C
:1042A000002D0FD014216846FCF7CDF806EBC400B2
:1042B00069468088009000200190012002902846E5
:1042C000FCF788FF06B070BD1C52000870B586B0C0
:1042D0000446042816D20C4E56F83450002D11D046
:1042E00014216846FCF7AFF806EBC40069468088E5
:1042F0000090112001900120029000200390284698
:10430000FCF768FF06B070BD1C52000830B40428EA
:1043100011D20A4B53F83040002C0CD0012908D0A0
:104320005FF0000203EBC0008188204630BCFDF73F
:1043300065B80122F6E730BC704700001C52000847
:10434000012801D1FFF756BB7047012801D1FFF7C3
:104350007DBB7047FCF72CBF114A10B5114913689B
:104360007BB90B68DB0708D10F4B1C6844F08074E5
:104370001C600B6843F001030B6000234B600123BA
:1043800013604A68094B0A4C1B68B3FBF4F34343C0
:1043900000E000BF4868801A9842FAD310BD0000C0
:1043A00084000020001000E0FCED00E00C00002084
:1043B00040420F00004870476442002000487047A8
:1043C000B042002010B5FFF7A3FBFFF7E3FBBDE809
:1043D0001040FFF713BC0000004870476043002006
:1043E00010B503280AD2012808D10846FFF72AFC95
:1043F0000348A0F1180188600120087310BD000077
:104400006043002010B500F007FC002010BD000044
:104410002DE9F041184C0F460546E6682068001D5E
:1044200000F08AFA38B9206890F82C1001208840F2
:10443000216981432161681C07D137B12168BDE83A
:10444000F0410E48091D00F0BEBA20683544B5425F
:104450004560216805D2A06BBDE8F041091D00F060
:104460009ABA606B091D00F096FAA06A854200D2E4
:10447000A562BDE8F0810000100000205006002079
:104480002DE9F041054600F0ABFA2E4CA068401C27
:10449000A06020682C4F10B1606940B32DE025600A
:1044A000A068012829D1002606EB860007EB8000D2
:1044B00000F063FA761C082EF6D32348A03000F0F3
:1044C0005CFA2148B43000F058FA1F48C83000F0B8
:1044D00054FA1D48DC3000F050FA1B48F03000F070
:1044E0004CFA1948A03060631430A06305E02068DE
:1044F000E96AC06A884200D82560606A401C606230
:10450000E96A0120226988401043206101EB8100A3
:1045100007EB8000291D00F056FA00F081FA60696F
:1045200000280CD02068E96AC06A884207D207498F
:104530004FF080500860BFF34F8FBFF36F8FBDE81F
:10454000F0810000100000206005002004ED00E074
:1045500010B5044690F8510058B101280CD002283B
:104560000FD0502080F31188BFF34F8FBFF36F8FB0
:10457000FEE7206B00F068FA2046BDE8104000F02E
:1045800063BA10BD0A4800210269012A00D901213D
:104590000268D26A0AB100207047064A1268012AEE
:1045A000F9D80029F7D1816AC068081A704700005D
:1045B000100000206005002010484FF470514207A1
:1045C00006D0C01D0D4920F00700411AC1F57051F9
:1045D0000B4A00230144C2E900030839183A21F0CC
:1045E000070111604B600B600B1AC0E90013936068
:1045F0004FF0004053605061704700006406002097
:1046000064000020204C214E12E000BF00F0E8F9C9
:10461000F068C568281D00F08FF9A068401EA060F2
:104620006068401E606000F0FBF92846FFF790FFCD
:1046300060680028EAD11548DC380068012807D9ED
:1046400013494FF080500860BFF34F8FBFF36F8F57
:10465000FFF798FF0228D6D300F028FBA06AE16894
:10466000884207D2502080F31188BFF34F8FBFF3E9
:104670006F8FFEE7FFF786FF022801D300F03AFABA
:1046800000F040FDBFE70000100000203C060020C5
:1046900004ED00E00346009829B10260C0E90F3143
:1046A000012100F0EBBB0060F8E700002DE9F05FAE
:1046B0008846DDE90B941546834691009A460A9E8A
:1046C000A522206BFBF7B7FE6FF00301206B01EB17
:1046D0008501084420F00707780707D0502080F3B1
:1046E0001188BFF34F8FBFF36F8FFEE70025B8F13E
:1046F000000F0FD05FF00000221818F8001082F8A9
:10470000341018F8001011B1401C1028F4D384F8AC
:10471000435001E084F83450082E00D30726E662A7
:10472000C4E91165201D00F033F904F1180000F010
:104730002FF92461C6F108006462A061E56484F881
:10474000505052465946384600F0C4F82060B9F13E
:10475000000F01D0C9F8004000F000B830BCBDE83F
:10476000C09F000030B5114900E011460A6882423E
:10477000FBD34B685C18844203D1406818444860FE
:10478000084643681C18944209D1084C183C246818
:10479000A24209D052681A4442600A681268026054
:1047A000814200D0086030BD0460F9E76400002059
:1047B0000648416B096829B1416BC968C9684968F5
:1047C000816270474FF0FF31FAE7000010000020CF
:1047D00008484068401C4FF0500080F3118804D016
:1047E000BFF34F8FBFF36F8FFEE7BFF34F8FBFF362
:1047F0006F8FFEE76C0000202DE9F0410546002791
:1048000000F054FA324E306808B9FFF7D5FE7069EF
:1048100005424ED1C5B3083568070ED005F0070034
:10482000C0F108000544680707D0502080F31188C4
:10483000BFF34F8FBFF36F8FFEE72DB370688542D4
:1048400037D82348183001460C6801E020460C4652
:104850006168A94202D221680029F7D131688C42EF
:1048600027D007682168016060680837411B10295C
:104870000FD96019420708D0502080F31188BFF388
:104880004F8FBFF36F8FFEE713E041606560FFF766
:1048900069FF61687068401A7060B268904200D227
:1048A000B060706901430020C4E90001F068401C59
:1048B000F06000F027FC780707D0502080F31188C3
:1048C000BFF34F8FBFF36F8FFEE73846BDE8F0812F
:1048D0004C00002010B5031F4FF080741C601B1F9C
:1048E00021F001011960191F044B0B6014390A6093
:1048F000091F6FF0020244380A6010BDD14700085A
:10490000642000F063F9FBE70A2000F05FF9FBE7A1
:104910000A2000F05BF9FBE74FF4FA74204600F040
:1049200055F9FBE74FF47A74FCF76EFDFFF7E4F9F5
:10493000204600F04BF9F7E7D0E9013201699A60AF
:10494000D0E901235A604A68824201D182684A60F4
:10495000002202610868401E086008687047000075
:10496000044B036003F1540008604FF48070106042
:1049700070470000C0000020704700F108014FF0B0
:10498000FF32C0E90112C16001610021016070477E
:1049900000210161704730B50B685A1C02D000F14C
:1049A000080202E0026904E02246546825689D423C
:1049B000FAD953684B6099608A6051600861016858
:1049C000491C016030BD42684A6093688B609368FF
:1049D0005960916008610168491C016070470000DE
:1049E000502080F31188BFF34F8FBFF36F8F0A49B8
:1049F0004868401C486001280CD10848006810F045
:104A0000FF0F07D0502080F31188BFF34F8FBFF303
:104A10006F8FFEE7704700006C00002004ED00E09F
:104A20000849486828B1401E486001D180F31188C8
:104A30007047502080F31188BFF34F8FBFF36F8F03
:104A4000FEE700006C00002070B500282AD0164D4B
:104A5000A0F1080460686969084207D1502080F31A
:104A60001188BFF34F8FBFF36F8FFEE722683AB113
:104A7000502080F31188BFF34F8FBFF36F8FFEE795
:104A80008843606000F012F96068696808446860F3
:104A90002046FFF767FE2869401C2861BDE870408A
:104AA00000F030BB70BD00004C0000200F4810B576
:104AB00001684FF47A72B1FBF2F30D486FF07F4456
:104AC0008360B4FBF3F3C360B1FBF1F32D24B4FBBB
:104AD000F3F303614FF0E020002303618361B1FB36
:104AE000F2F1491E41610721016110BD0C00002057
:104AF0006C0000202DE9F041334E0546F0688542F8
:104B000000D905464FF0E024206920F00100206123
:104B1000A169B268681E02FB00173069874200D99C
:104B20003F1A72B6BFF34F8FBFF36F8FFFF702FAD2
:104B300058B367614FF00008C4F81880206940F04E
:104B4000010020612846FEF787F92846FEF783F921
:104B500062B6BFF34F8FBFF36F8F72B6BFF34F8F45
:104B6000BFF36F8F062020612069C00314D5A069B0
:104B7000B168381A081A3269401E904201D388423F
:104B800000D9481E6061681E10E0A069606120695C
:104B900040F00100206111E0B268A0695543291A74
:104BA000B1FBF2F0431C5343591A6161C4F81880F9
:104BB000216941F00101216100F064F8B068401EF4
:104BC000606162B6BDE8F0816C00002010B50200A3
:104BD00014D00F48006B38B1502080F31188BFF318
:104BE0004F8FBFF36F8FFEE700F060F80021104693
:104BF000FFF70EFC00F086FA002807D105494FF0B8
:104C000080500860BFF34F8FBFF36F8F10BD00005F
:104C10001000002004ED00E010B586B000240394DD
:104C200005AA04A903A80494FFF79AFEDDE903018D
:104C30000094CDE9011000230EA11048059A00F060
:104C400091F90F490028C86211D0502080F31188D3
:104C5000BFF34F8FBFF36F8F4FF0FF30886201209B
:104C60004861CC6006B0BDE8104000F06BB806B0FB
:104C700010BD000049444C450000000005460008F6
:104C8000100000200849CA688B6A02449A4207D97A
:104C9000502080F31188BFF34F8FBFF36F8FFEE773
:104CA000CA681044C8607047100000200248016BB9
:104CB000491C0163704700001000002010B51F4C14
:104CC000206B10B10120E06110BD0020E061206880
:104CD0004FF0A531006B02688A4208D142688A42CF
:104CE00005D182688A4202D1C068884204D0216816
:104CF00020683431FFF740FE20691149B0FA80F096
:104D0000C0F11F0000EB800051F820206AB101EBD8
:104D1000800000F10802416849684160914201D178
:104D200049684160C868206010BD502080F3118838
:104D3000BFF34F8FBFF36F8FFEE70000100000201E
:104D4000600500201CB537480168374A914207D1F9
:104D5000502080F31188BFF34F8FBFF36F8FFEE7B2
:104D600000683149491E884207D1502080F31188DC
:104D7000BFF34F8FBFF36F8FFEE72C490878019088
:104D8000FF20087008788DF800009DF800009DF85D
:104D9000002000F0F000904207D0502080F31188EE
:104DA000BFF34F8FBFF36F8FFEE79DF80000204CDD
:104DB00000F0500020700720606105E09DF80020A1
:104DC00052008DF80020401E9DF800201206F5D4F8
:104DD0006061032807D0502080F31188BFF34F8F04
:104DE000BFF36F8FFEE74FF4407060610198087069
:104DF0000C482030016841F470010160016841F005
:104E000070410160FFF752FE00206060FBF730FA4E
:104E10000848016841F040410160FBF715FA0020A5
:104E20001CBD000000ED00E071C20F4100E400E095
:104E30006C00002034EF00E0F8B517460E46050080
:104E400013D005FB06F04830FFF7D6FC04000AD06B
:104E5000002084F8460004F148023B4631462846CB
:104E60000094FFF717FC2046F8BD502080F311880E
:104E7000BFF34F8FBFF36F8FFEE7000070B50D4695
:104E8000040025D0FFF7ACFDD4E90F20216802FB18
:104E90000011A1600021A163216861600A46D4E984
:104EA0000F01401E00FB0121E16021464FF0FF3061
:104EB00001F8440F487004F110008DB1FFF75DFD5B
:104EC00004F12400FFF759FDFFF7AAFD012070BD92
:104ED000502080F31188BFF34F8FBFF36F8FFEE731
:104EE00021690029F0D000F0CFF80028ECD0044967
:104EF0004FF080500860BFF34F8FBFF36F8FE3E731
:104F000004ED00E02DE9FF5F8346DDE90E87994659
:104F100016468A469000FFF76FFC05001CD054200F
:104F2000FFF76AFC040014D00020256384F85100C8
:104F3000CDE90240CDE900874B46324651465846FE
:104F4000FFF7B4FB2046FFF79BFA012004B000F006
:104F500006B82846FFF778FD4FF0FF30F6E730BC83
:104F6000BDE8C09FF0B585B0DDE90B640A9DA6B130
:104F7000DCB1542700972663022684F8516000268E
:104F800004AFCDE90246CDE90057FFF78FFB20467D
:104F9000FFF776FA049805B0F0BD502080F3118831
:104FA000BFF34F8FBFF36F8FFEE7502080F3118860
:104FB000BFF34F8FBFF36F8FFEE700002DE9F04185
:104FC0002F4C0026206B28B1A069401CA061304600
:104FD000BDE8F081E5686D1CE56013D1606B006889
:104FE00038B1502080F31188BFF34F8FBFF36F8F1C
:104FF000FEE7606BA16B6163A063206A401C2062C6
:10500000FFF7D6FBA06ADFF87C80854209D3606B8E
:105010000068A0B1606BC068C7687868854211D22B
:10502000A0622068C06A00EB800158F821000128C6
:1050300000D90126E0690028C9D00126C7E74FF052
:10504000FF30EDE7381DFFF777FCB86A18B107F1BC
:105050001800FFF771FCF96A0120226988401043AB
:10506000206101EB810108EB8100391DFFF7ABFCEA
:10507000F86A2168C96A8842C9D30126C7E70000D7
:1050800010000020600500202DE9F041C068C468D0
:10509000ACB104F118000746FFF74EFC174D286B22
:1050A0000126A0B139461648FFF78DFCE06A296851
:1050B000C96A884220D90120EE61BDE8F081502004
:1050C00080F31188BFF34F8FBFF36F8FFEE7201D72
:1050D000FFF732FCE16A2A6906FA01F01043286101
:1050E00001EB81000649C83901EB8000211DFFF763
:1050F0006AFCFFF75DFBD9E70020DEE71000002027
:10510000280600202DE9F0472C4D00242746286B67
:1051100038B1FFF765FC286B401E2863286B40B14F
:1051200046E0502080F31188BFF34F8FBFF36F8F9D
:10513000FEE7A968224E0120D1B3A6F1C809804636
:105140003068E8B1F068C46804F11800FFF7F4FBB8
:10515000201DFFF7F1FBE06A2A6908FA00F111430C
:10516000296100EB800109EB8100211DFFF72BFC79
:10517000E06A2968C96A8842E2D3C5F81C80DFE783
:105180000CB1FFF715FBAC6944B14646FFF716FFBB
:1051900000B1EE61641EF9D10020A861E86938B160
:1051A0000849012738070860BFF34F8FBFF36F8F9F
:1051B000FFF736FC3846BDE8F087000010000020FD
:1051C0002806002004ED00E04FF04070E1EE100AE8
:1051D000704700000000000000000000010203040E
:1051E00006070809A0860100400D0300801A06008A
:1051F00000350C0040420F0080841E0000093D0075
:1052000000127A000024F40000366E010048E80124
:10521000006CDC02000000000102030400000048F2
:105220000010000000000000000000000000004826
:10523000040000000004004820000000400D0300AE
:1052400090D0030080841E00E80300006C52000828
:1052500000000020C0000000C40100082C5300081A
:10526000C0000020B84B0000E00100080100000071
:10527000100000000000000000093D0000000000D8
:10528000000000000000000000000000000000001E
:10529000000000000000000000000000000000000E
:1052A00000000000000000000000000000000000FE
:1052B00000000000000000000000000000000000EE
:1052C00000000000000000000000000000000000DE
:1052D000000000000000000000000000AAAAAAAA26
:1052E00000000000000000000000000000000000BE
:1052F00000000000000000000000000000000000AE
:10530000000000000000000000000000000000009D
:10531000000000000000000000000000000000008D
:0C53200000000000000000000000000081
:040000050800018965
:00000001FF
